:020000040800F2
:10000000D0060020CD010008592400085124000822
:10001000552400086D040008FD28000800000000B9
:10002000000000000000000000000000B7250008EC
:100030007104000800000000B5250008A126000892
:10004000E7010008E7010008E7010008E7010008F0
:10005000E7010008E7010008A9220008E7010008FD
:100060000D2300084D230008DD230008E7010008E8
:10007000E7010008E7010008E7010008E7010008C0
:10008000E7010008E7010008E7010008E7010008B0
:10009000E7010008E7010008E7010008E7010008A0
:1000A000E7010008E7010008E7010008E701000890
:1000B000E701000805270008A9270008E701000854
:1000C000E7010008E7010008E7010008E701000870
:1000D000E701000875280008E7010008E7010008AB
:1000E000E7010008E7010008E7010008E701000850
:1000F000E7010008E7010008E7010008E701000840
:10010000E7010008E7010008E7010008E70100082F
:10011000E7010008E7010008E7010008E70100081F
:10012000E7010008E7010008E7010008E70100080F
:1001300000F002F800F03AF80AA090E8000C8244BF
:100140008344AAF10107DA4501D100F02FF8AFF29C
:10015000090EBAE80F0013F0010F18BFFB1A43F0A5
:1001600001031847BC4E0000DC4E0000103A24BFCB
:1001700078C878C1FAD8520724BF30C830C144BF0C
:1001800004680C607047000000230024002500264E
:10019000103A28BF78C1FBD8520728BF30C148BFEA
:1001A0000B6070471FB51FBD10B510BD00F082F881
:1001B0001146FFF7F7FF02F0C9FD00F0A0F803B405
:1001C000FFF7F2FF03BC00F0A7F8000009488047E2
:1001D00009480047FEE7FEE7FEE7FEE7FEE7FEE729
:1001E000FEE7FEE7FEE7FEE704480549054A064B41
:1001F00070470000A526000831010008D00000204B
:10020000D0060020D0020020D002002010B5431CF0
:1002100002E010F8011B71B18107FAD14FF00132F1
:1002200002C88C1A8C4314EAC211F9D0C01A0A060B
:1002300003D0C01E10BDC01A10BD0A0401D0801E1C
:1002400010BD0902FCD0401E10BD10B5203AC0F010
:100250000B80B1E81850203AA0E81850B1E81850C7
:10026000A0E81850BFF4F5AF5FEA027C24BFB1E804
:100270001850A0E8185044BF18C918C0BDE8104075
:100280005FEA827C24BF51F8043B40F8043B08BF7E
:100290007047D20728BF31F8023B48BF11F8012B45
:1002A00028BF20F8023B48BF00F8012B7047704779
:1002B00070477047754600F02BF8AE46050069465A
:1002C000534620F00700854618B020B5FFF78CFF95
:1002D000BDE820404FF000064FF000074FF0000847
:1002E0004FF0000B21F00701AC46ACE8C009ACE8C8
:1002F000C009ACE8C009ACE8C0098D46704710B52C
:100300000446AFF300802046BDE81040FFF757BF1A
:10031000004870477000002001491820ABBEFEE77E
:10032000260002007047000070B54548454909683D
:1003300050F831504349096800EBC1004468424815
:10034000007800B96442414800884149096805FBCA
:1003500001003E4908803F4800883D49096804FB88
:1003600001003C4908800846008846281EDC3748C2
:10037000008839490988401A3C2807DB334800883F
:1003800035490988401A10F13C0F0BDD46203149F0
:10039000088001202C49087030480068401C2F4913
:1003A000086048E007202E49087044E0294800888A
:1003B00040F2DA2188421FDB244800882949098855
:1003C000401A3C2807DB2148008826490988401A42
:1003D00010F13C0F0CDD40F2DA201E4908800020AD
:1003E000194908701D480068401C1C49086022E03B
:1003F00007201B4908701EE014480088142809DCF7
:100400001420124908800F480068C0F107000D4908
:10041000086010E00D480088B0F5E67F0ADB4FF475
:10042000E6700A49088007480068C0F107000549DE
:10043000086000E070BD0C4800F01BF800BFF9E751
:1004400014000020100000200200002058000020AE
:100450006C0000205A000020560000200C000020F4
:100460000000002054000020A086010000BFFEE72D
:100470007047002100E0491C8142FCD37047000016
:100480000C48806940F008000A4988610A48006801
:1004900020F00F00084908600846006840F003009B
:1004A000086005481030006840F48070024910313F
:1004B0000860704700100240040C014000B500F0D5
:1004C0003DF900F0EBF800F099F800F087F900BD75
:1004D00000BF011EA0F1010290B2FAD1704710B521
:1004E00000F04CF804466CB1002008E044FA00F239
:1004F00002F0010212B10146084610BD401C072857
:10050000F4DD00BF4FF0FF30F7E7000018488069C6
:1005100040F00800164988610846806940F02000D4
:1005200088611448006820F47F401249086008463A
:10053000006840F4605008600E480830006840F4DD
:1005400040600C49083108600B48006820F4704096
:10055000094908600846006840F4405008600648B1
:100560000C30006840F0080003490C310860704707
:1005700000100240040C01400014014008B50020A6
:1005800000901C48006840F400601A490860502040
:10059000FFF79EFF1748006840F0006015490860AB
:1005A000002322E09DF80000401000901148083818
:1005B0000068C0F3802020B99DF8000040F0800062
:1005C00000900D48006840F008000B49086050207A
:1005D000FFF77EFF0848006840F4002006490860E5
:1005E0005020FFF775FF581CC3B2082BDADB9DF8CB
:1005F000000008BD100C0140101401402148806922
:1006000040F040001F4988611F48006820F47020B6
:100610001D4908600846006840F4002008601A4838
:100620000C30006840F0100017490C310860154884
:10063000806940F00100134988611448C06820F0C7
:100640000F011248C160C06840F004010F48C1604A
:100650000F48006840F010000D4908600C480C304D
:10066000006840F010000A490C3108606521094813
:1006700001700948006840F480604FF0E021C1F843
:1006800000017047001002400018014000000140C6
:10069000000401400AE400E000E100E02148806934
:1006A00040F040001F4988611F48006820F47040F6
:1006B0001D4908600846006840F4004008601A4878
:1006C0000C30006840F0080017490C3108601548EC
:1006D000806940F00100134988611448806820F463
:1006E0007040124988600846806840F48040886005
:1006F0000F48006840F008000D4908600C480C30B5
:10070000006840F008000A490C310860652109487A
:1007100001700948006840F400704FF0E021C1F812
:100720000001704700100240001801400000014025
:100730000004014009E400E000E100E02148806994
:1007400040F040001F4988611F48006820F4706035
:100750001D4908600846006840F4006008601A48B7
:100760000C30006840F0040017490C31086015484F
:10077000806940F00100134988611448806820F4C2
:100780007060124988600846806840F48060886024
:100790000F48006840F004000D4908600C480C3018
:1007A000006840F004000A490C31086065210948DE
:1007B00001700948006840F480704FF0E021C1F8F2
:1007C0000001704700100240001801400000014085
:1007D0000004014008E400E000E100E01F488069F7
:1007E00040F004001D4988611D48006820F00F009A
:1007F0001B4908600846006840F008000860184877
:100800000C30006820F0010015490C3108601348D5
:10081000806940F00100114988611248806820F029
:100820000F00104988601048006840F001000E4930
:1008300008600D480830006840F001000A4908319E
:1008400008607521094801700948006840F04000BF
:100850004FF0E021C1F80001704700000010024095
:1008600000080140000001400004014006E400E0EF
:1008700000E100E0014601F007021202054B186892
:100880004FF6FF031840044B18431043014B186008
:10089000704700000CED00E00000FA05F0B50746D7
:1008A000002240F2DF134FF4285001F0C1FB101278
:1008B00001F0CAFB42F6012001F0BAFB104601F03C
:1008C000C3FB42F6022001F0B3FB181201F0BCFB9F
:1008D00042F6032001F0ACFBD8B201F0B5FB0024D6
:1008E00040F21F354FF42C5001F0A2FB201201F012
:1008F000ABFB42F6013001F09BFB204601F0A4FB6C
:1009000042F6023001F094FB281201F09DFB42F602
:10091000033001F08DFBE8B201F096FB4FF430504C
:1009200001F086FB002603E0384601F08DFB761CC3
:10093000581C691C4843B042F6D8F0BD2DE9F04F71
:1009400005460E4692469B46002457460320A0EBE0
:100950004A09BBF1000F48D144E0F21B91B22A19B9
:1009600090B2099A00F099F8321B91B2EA1990B24C
:10097000099A00F092F8321991B2EA1990B2099AE4
:1009800000F08BF8F21991B22A1990B2099A00F08E
:1009900084F8F21991B22A1B90B2099A00F07DF8FE
:1009A000321991B2EA1B90B2099A00F076F8F21B64
:1009B00091B22A1B90B2099A00F06FF8321B91B2E3
:1009C000EA1B90B2099A00F068F8641CB9F1000FB4
:1009D00003DAA000801D814404E0E01B80000A309F
:1009E00081447F1EBC42B8DD55E052E0A04641E0A4
:1009F000A6EB080291B22A1990B2099A00F04DF8BC
:100A0000321B91B205EB080290B2099A00F045F84A
:100A1000321991B205EB080290B2099A00F03DF844
:100A200006EB080291B22A1990B2099A00F035F843
:100A300006EB080291B22A1B90B2099A00F02DF839
:100A4000321991B2A5EB080290B2099A00F025F88C
:100A5000A6EB080291B22A1B90B2099A00F01DF889
:100A6000321B91B2A5EB080290B2099A00F015F87A
:100A700008F10108B845BBDD641CB9F1000F03DAC9
:100A8000A000801D814404E0E01B80000A30814406
:100A90007F1EBC42AADDBDE8F08F10B503460C46B0
:100AA0004FF4285001F0C4FA181201F0CDFA42F6C2
:100AB000012001F0BDFAD8B201F0C6FA4FF42C5073
:100AC00001F0B6FA201201F0BFFA42F6013001F04F
:100AD000AFFAE0B201F0B8FA4FF4305001F0A8FAE2
:100AE000104601F0B1FA10BDF0B504460D46059F61
:100AF00000264FF4285001F09BFA201201F0A4FACE
:100B000042F6012001F094FAE0B201F09DFA42F6BB
:100B1000022001F08DFA6119491EC1F30F2001F086
:100B200093FA42F6032001F083FA6119491EC8B214
:100B300001F08AFA4FF42C5001F07AFA101201F009
:100B400083FA42F6013001F073FAD0B201F07CFA78
:100B500042F6023001F06CFAD118491EC1F30F20A1
:100B600001F072FA42F6033001F062FAD118491E20
:100B7000C8B201F069FA4FF4305001F059FA00BFE1
:100B800003E0384601F060FA761C05FB03F0B04242
:100B9000F7D8F0BD10B55748406940F4807055490A
:100BA00048610846806940F008008861084680690D
:100BB00040F0200088610846806940F0400088616C
:100BC0000846806940F4807088614B48006820F0D6
:100BD0000F00494908600846006840F003000860BB
:100BE000464800684649084044490860084600688D
:100BF0004449084341490860081F006800F0FF208D
:100C0000091F08600846006840F0BB1008603E48B5
:100C1000006800203C4908600846006840F0BB308E
:100C20000860081F006820F07040091F086008462F
:100C3000006840F0304008603448406820F470207C
:100C4000324948600846406840F430204860084611
:100C5000006820F00F0008600846006840F00B00B4
:100C6000086000204FF020418861C8612849086071
:100C70004FF02040806940F480504FF0204188615F
:100C80000846806940F4804088610846806940F0E9
:100C9000100088610846C069C8610846C06940F014
:100CA0000100C8610846C06940F47060C861184816
:100CB0000068C1F81C0116480068C1F81C0108460C
:100CC000D0F81C0140F44070C1F81C01084680694E
:100CD00040F0010088610F48FFF7CBFB00F01CF8E3
:100CE00005481030006840F00100034910310860E9
:100CF00010BD000000100240000C0140041401402F
:100D000000F0FF00BB0B00BB0418014000200140B5
:100D10001C0100A020A1070010B555214FF4704020
:100D200001F08AF9AA214FF2010001F085F9522160
:100D30004FF2020001F080F908214FF2030001F0A8
:100D40007BF901214FF2040001F076F90D214FF4F7
:100D5000304001F071F90D214BF2010001F06CF906
:100D60000D214BF2020001F067F935214FF43640B6
:100D700001F062F935214BF2016001F05DF9352196
:100D80004BF2026001F058F90D214FF4314001F0AF
:100D900053F90D214BF2011001F04EF90D214BF2E8
:100DA000021001F049F935214FF4374001F044F9C0
:100DB00035214BF2017001F03FF935214BF2027001
:100DC00001F03AF900214FF4324001F035F90021E9
:100DD0004BF2012001F030F900214BF2022001F02A
:100DE0002BF924214FF4384001F026F924214BF649
:100DF000010001F021F924214BF6020001F01CF959
:100E000001214FF43F4001F017F908214FF433401E
:100E100001F012F908214BF2013001F00DF908211F
:100E20004BF2023001F008F934214FF4394001F05F
:100E300003F934214BF6011001F0FEF834214BF692
:100E4000021001F0F9F824214FF43A4001F0F4F8CF
:100E500024214BF6012001F0EFF824214BF602206B
:100E600001F0EAF800214FF43C4001F0E5F8882158
:100E70004BF6014001F0E0F800214BF6024001F092
:100E8000DBF800214FF43D4001F0D6F888214BF605
:100E9000015001F0D1F800214BF6025001F0CCF8DE
:100EA00000214FF43E4001F0C7F8A3214BF601604A
:100EB00001F0C2F800214FF4514001F0BDF80521C6
:100EC0004DF2011001F0B8F800214DF2021001F0CE
:100ED000B3F840214DF2031001F0AEF800214DF2BD
:100EE000041001F0A9F860214DF2051001F0A4F8FA
:100EF00000214DF2061001F09FF890214DF20710ED
:100F000001F09AF800214DF2081001F095F89921AE
:100F10004DF2091001F090F800214DF20A1001F095
:100F20008BF8BB214DF20B1001F086F800214DF239
:100F30000C1001F081F8DC214DF20D1001F07CF86D
:100F400001214DF20E1001F077F804214DF20F103F
:100F500001F072F801214DF2101001F06DF8252119
:100F60004DF2111001F068F801214DF2121001F05C
:100F700063F859214DF2131001F05EF801214DF292
:100F8000141001F059F882214DF2151001F054F8B7
:100F900001214DF2161001F04FF8C6214DF2171045
:100FA00001F04AF802214DF2181001F045F8012134
:100FB0004DF2191001F040F802214DF21A1001F023
:100FC0003BF802214DF21B1001F036F802214DF2E0
:100FD0001C1001F031F839214DF21D1001F02CF8F0
:100FE00002214DF21E1001F027F879214DF21F1059
:100FF00001F022F802214DF2201001F01DF8A1218C
:101000004DF2211001F018F802214DF2221001F0EA
:1010100013F8D9214DF2231001F00EF803214DF2FF
:10102000241001F009F800214DF2251001F004F818
:1010300003214DF2261000F0FFFF38214DF227105A
:1010400000F0FAFF03214DF2281000F0F5FF6721B0
:101050004DF2291000F0F0FF03214DF22A1000F0AC
:10106000EBFF8F214DF22B1000F0E6FF03214DF234
:101070002C1000F0E1FFCD214DF22D1000F0DCFF2F
:1010800003214DF22E1000F0D7FFFD214DF22F105D
:1010900000F0D2FF03214DF2301000F0CDFFFE2111
:1010A0004DF2311000F0C8FF03214DF2321000F074
:1010B000C3FFFF214DF2331000F0BEFF00214FF4BB
:1010C000524000F0B9FF05214DF2012000F0B4FFBD
:1010D00000214DF2022000F0AFFF40214DF203202D
:1010E00000F0AAFF00214DF2042000F0A5FF6D21C1
:1010F0004DF2052000F0A0FF00214DF2062000F087
:101100009BFF90214DF2072000F096FF00214DF249
:10111000082000F091FF99214DF2092000F08CFF8A
:1011200000214DF20A2000F087FFBB214DF20B2079
:1011300000F082FF00214DF20C2000F07DFFDC2149
:101140004DF20D2000F078FF01214DF20E2000F04D
:1011500073FF04214DF20F2000F06EFF01214DF2CC
:10116000102000F069FF25214DF2112000F064FFEE
:1011700001214DF2122000F05FFF59214DF21320A2
:1011800000F05AFF01214DF2142000F055FF82219A
:101190004DF2152000F050FF01214DF2162000F015
:1011A0004BFFC6214DF2172000F046FF02214DF201
:1011B000182000F041FF01214DF2192000F03CFF02
:1011C00002214DF21A2000F037FF02214DF21B20C0
:1011D00000F032FF02214DF21C2000F02DFF3921DA
:1011E0004DF21D2000F028FF02214DF21E2000F0DC
:1011F00023FF79214DF21F2000F01EFF02214DF246
:10120000202000F019FFA1214DF2212000F014FF51
:1012100002214DF2222000F00FFFD9214DF22320B0
:1012200000F00AFF03214DF2242000F005FF002109
:101230004DF2252000F000FF03214DF2262000F0A2
:10124000FBFE38214DF2272000F0F6FE03214DF27F
:10125000282000F0F1FE67214DF2292000F0ECFE7D
:1012600003214DF22A2000F0E7FE8F214DF22B20C2
:1012700000F0E2FE03214DF22C2000F0DDFECD2136
:101280004DF22D2000F0D8FE03214DF22E2000F06B
:10129000D3FEFD214DF22F2000F0CEFE03214DF2B2
:1012A000302000F0C9FEFE214DF2312000F0C4FED6
:1012B00003214DF2322000F0BFFEFF214DF233201A
:1012C00000F0BAFE00214FF4534000F0B5FE0521B6
:1012D0004DF2013000F0B0FE00214DF2023000F07E
:1012E000ABFE40214DF2033000F0A6FE00214DF28E
:1012F000043000F0A1FE6D214DF2053000F09CFE9F
:1013000000214DF2063000F097FE90214DF207309B
:1013100000F092FE00214DF2083000F08DFE992180
:101320004DF2093000F088FE00214DF20A3000F045
:1013300083FEBB214DF20B3000F07EFE00214DF20A
:101340000C3000F079FEDC214DF20D3000F074FE1F
:1013500001214DF20E3000F06FFE04214DF20F30EE
:1013600000F06AFE01214DF2103000F065FE2521EB
:101370004DF2113000F060FE01214DF2123000F00C
:101380005BFE59214DF2133000F056FE01214DF263
:10139000143000F051FE82214DF2153000F04CFE69
:1013A00001214DF2163000F047FEC6214DF21730F4
:1013B00000F042FE02214DF2183000F03DFE012106
:1013C0004DF2193000F038FE02214DF21A3000F0D3
:1013D00033FE02214DF21B3000F02EFE02214DF2B1
:1013E0001C3000F029FE39214DF21D3000F024FEA2
:1013F00002214DF21E3000F01FFE79214DF21F3008
:1014000000F01AFE02214DF2203000F015FEA1215D
:101410004DF2213000F010FE02214DF2223000F09A
:101420000BFED9214DF2233000F006FE03214DF2D0
:10143000243000F001FE00214DF2253000F0FCFDCB
:1014400003214DF2263000F0F7FD38214DF2273010
:1014500000F0F2FD03214DF2283000F0EDFD672190
:101460004DF2293000F0E8FD03214DF22A3000F062
:10147000E3FD8F214DF22B3000F0DEFD03214DF214
:101480002C3000F0D9FDCD214DF22D3000F0D4FDEF
:1014900003214DF22E3000F0CFFDFD214DF22F3013
:1014A00000F0CAFD03214DF2303000F0C5FDFE21F1
:1014B0004DF2313000F0C0FD03214DF2323000F02A
:1014C000BBFDFF214DF2333000F0B6FD00214FF49B
:1014D000544000F0B1FD05214DF2014000F0ACFD9B
:1014E00000214DF2024000F0A7FD40214DF20340E3
:1014F00000F0A2FD00214DF2044000F09DFD6D21A1
:101500004DF2054000F098FD00214DF2064000F03C
:1015100093FD90214DF2074000F08EFD00214DF229
:10152000084000F089FD99214DF2094000F084FD4A
:1015300000214DF20A4000F07FFDBB214DF20B402F
:1015400000F07AFD00214DF20C4000F075FDDC2129
:101550004DF20D4000F070FD01214DF20E4000F003
:101560006BFD04214DF20F4000F066FD01214DF2AC
:10157000104000F061FD25214DF2114000F05CFDAE
:1015800001214DF2124000F057FD59214DF2134058
:1015900000F052FD01214DF2144000F04DFD82217A
:1015A0004DF2154000F048FD01214DF2164000F0CB
:1015B00043FDC6214DF2174000F03EFD02214DF2E1
:1015C000184000F039FD01214DF2194000F034FDC2
:1015D00002214DF21A4000F02FFD02214DF21B4076
:1015E00000F02AFD02214DF21C4000F025FD3921BA
:1015F0004DF21D4000F020FD02214DF21E4000F092
:101600001BFD79214DF21F4000F016FD02214DF225
:10161000204000F011FDA1214DF2214000F00CFD11
:1016200002214DF2224000F007FDD9214DF2234066
:1016300000F002FD03214DF2244000F0FDFC0021EA
:101640004DF2254000F0F8FC03214DF2264000F059
:10165000F3FC38214DF2274000F0EEFC03214DF25F
:10166000284000F0E9FC67214DF2294000F0E4FC3D
:1016700003214DF22A4000F0DFFC8F214DF22B4078
:1016800000F0DAFC03214DF22C4000F0D5FCCD2116
:101690004DF22D4000F0D0FC03214DF22E4000F021
:1016A000CBFCFD214DF22F4000F0C6FC03214DF292
:1016B000304000F0C1FCFE214DF2314000F0BCFC96
:1016C00003214DF2324000F0B7FCFF214DF23340D0
:1016D00000F0B2FC00214FF4554000F0ADFC0521B4
:1016E0004DF2015000F0A8FC00214DF2025000F034
:1016F000A3FC40214DF2035000F09EFC00214DF26E
:10170000045000F099FC6D214DF2055000F094FC5E
:1017100000214DF2065000F08FFC90214DF2075051
:1017200000F08AFC00214DF2085000F085FC992160
:101730004DF2095000F080FC00214DF20A5000F0FB
:101740007BFCBB214DF20B5000F076FC00214DF2EA
:101750000C5000F071FCDC214DF20D5000F06CFCDF
:1017600000214DF20E5000F067FC04214DF20F50A5
:1017700000F062FC01214DF2105000F05DFC2521CB
:101780004DF2115000F058FC01214DF2125000F0C2
:1017900053FC59214DF2135000F04EFC01214DF243
:1017A000145000F049FC82214DF2155000F044FC29
:1017B00001214DF2165000F03FFCC6214DF21750AA
:1017C00000F03AFC02214DF2185000F035FC0121E6
:1017D0004DF2195000F030FC02214DF21A5000F089
:1017E0002BFC02214DF21B5000F026FC02214DF291
:1017F0001C5000F021FC39214DF21D5000F01CFC62
:1018000002214DF21E5000F017FC79214DF21F50BD
:1018100000F012FC02214DF2205000F00DFCA1213D
:101820004DF2215000F008FC02214DF2225000F050
:1018300003FCD9214DF2235000F0FEFB03214DF2B1
:10184000245000F0F9FB00214DF2255000F0F4FB8C
:1018500003214DF2265000F0EFFB38214DF22750C6
:1018600000F0EAFB03214DF2285000F0E5FB672170
:101870004DF2295000F0E0FB03214DF22A5000F018
:10188000DBFB8F214DF22B5000F0D6FB03214DF2F4
:101890002C5000F0D1FBCD214DF22D5000F0CCFBAF
:1018A00003214DF22E5000F0C7FBFD214DF22F50C9
:1018B00000F0C2FB03214DF2305000F0BDFBFE21D1
:1018C0004DF2315000F0B8FB03214DF2325000F0E0
:1018D000B3FBFF214DF2335000F0AEFB00214FF47B
:1018E000564000F0A9FB05214DF2016000F0A4FB79
:1018F00000214DF2026000F09FFB40214DF2036099
:1019000000F09AFB00214DF2046000F095FB6D2180
:101910004DF2056000F090FB00214DF2066000F0F2
:101920008BFB90214DF2076000F086FB00214DF209
:10193000086000F081FB99214DF2096000F07CFB0A
:1019400000214DF20A6000F077FBBB214DF20B60E5
:1019500000F072FB00214DF20C6000F06DFBDC2109
:101960004DF20D6000F068FB01214DF20E6000F0B9
:1019700063FB04214DF20F6000F05EFB01214DF28C
:10198000106000F059FB25214DF2116000F054FB6E
:1019900001214DF2126000F04FFB59214DF213600E
:1019A00000F04AFB01214DF2146000F045FB82215A
:1019B0004DF2156000F040FB01214DF2166000F081
:1019C0003BFBC6214DF2176000F036FB02214DF2C1
:1019D000186000F031FB01214DF2196000F02CFB82
:1019E00002214DF21A6000F027FB02214DF21B602C
:1019F00000F022FB02214DF21C6000F01DFB39219A
:101A00004DF21D6000F018FB02214DF21E6000F047
:101A100013FB79214DF21F6000F00EFB02214DF205
:101A2000206000F009FBA1214DF2216000F004FBD1
:101A300002214DF2226000F0FFFAD9214DF223601D
:101A400000F0FAFA03214DF2246000F0F5FA0021CB
:101A50004DF2256000F0F0FA03214DF2266000F00F
:101A6000EBFA38214DF2276000F0E6FA03214DF23F
:101A7000286000F0E1FA67214DF2296000F0DCFAFD
:101A800003214DF22A6000F0D7FA8F214DF22B602E
:101A900000F0D2FA03214DF22C6000F0CDFACD21F6
:101AA0004DF22D6000F0C8FA03214DF22E6000F0D7
:101AB000C3FAFD214DF22F6000F0BEFA03214DF272
:101AC000306000F0B9FAFE214DF2316000F0B4FA56
:101AD00003214DF2326000F0AFFAFF214DF2336086
:101AE00000F0AAFA55214FF4704000F0A5FAAA219F
:101AF0004FF2010000F0A0FA52214FF2020000F074
:101B00009BFA08214FF2030000F096FA00214FF2F1
:101B1000040000F091FACC214FF4314000F08CFA2F
:101B200000214BF2011000F087FA05214FF43640F6
:101B300000F082FA70214FF4374000F07DFA7021F6
:101B40004BF2017000F078FA01214FF4384000F0B8
:101B500073FA05214BF6010000F06EFA05214BF6F1
:101B6000020000F069FA05214BF6030000F064FA68
:101B700000214FF43C4000F05FFA00214BF6014099
:101B800000F05AFA00214BF6024000F055FAD0213D
:101B90004FF4494000F050FA82214CF6011000F059
:101BA0004BFA50214CF6021000F046FA50214CF648
:101BB000031000F041FA50214CF6041000F03CFAFA
:101BC00055214FF4685000F037FA4FF4885000F078
:101BD0002FFA0448FEF74DFC4FF4245000F028FA89
:101BE00010BD0000C0D401002DE9F043B3B005469C
:101BF0000E4617469846DDF8E89038222D4925A86C
:101C0000FEF723FB8C222B49383102A8FEF71DFB7F
:101C100000244AE0C7EBC70002A901EB400030F8FE
:101C20001400012820D10DF1940C0CEBC40CCDF85C
:101C30000080BCF806300DF1940C0CEBC40CBCF821
:101C400004C0B4441FFA8CF20DF1940C0CEBC40CDC
:101C5000BCF802100DF1940C3CF834C0AC441FFAEF
:101C60008CF0FEF741FF1FE00DF1940C0CEBC40C5F
:101C7000CDF80090BCF806300DF1940C0CEBC40CC0
:101C8000BCF804C0B4441FFA8CF20DF1940C0CEBB8
:101C9000C40CBCF802100DF1940C3CF834C0AC44F8
:101CA0001FFA8CF0FEF720FF641C062CB2D933B06B
:101CB000BDE8F0835C4F00082DE9F04F04460D4667
:101CC00016469A46DDF824900C224FF0060B202E83
:101CD00001DB7F2E01DDBDE8F08FA6F12000C6B24A
:101CE0004FF4285000F0A4F9201200F0ADF942F6AC
:101CF000012000F09DF9E0B200F0A6F942F60220C2
:101D000000F096F90BEB0401491EC1F30F2000F01F
:101D10009BF942F6032000F08BF90BEB0401491EFE
:101D2000C8B200F091F94FF42C5000F081F928125C
:101D300000F08AF942F6013000F07AF9E8B200F0DA
:101D400083F942F6023000F073F95119491EC1F3CC
:101D50000F2000F079F942F6033000F069F95119CB
:101D6000491EC8B200F070F94FF4305000F060F92D
:101D7000002327E000271EE04FF0000817E006EBE5
:101D8000C600144901EB800008EB48011944405C8F
:101D9000B84000F0800018B1504600F055F902E05C
:101DA000484600F051F908F1010000F0FF08D8455D
:101DB000E5DB781CC7B2032092FBF0F0B842DBDC15
:101DC000581CC3B2D11702EB5171B3EBE10FD1DB59
:101DD00000BF80E7004200082DE9F04F85B00746BC
:101DE0000E4690469946DDF838A0B8F1200F0ADA81
:101DF0001023324608213846CDF800A0FEF774FEC5
:101E000005B0BDE8F08F002009E0A8F120011F4ACD
:101E100002EB0111095C01AA1154411C88B20F2880
:101E2000F3DD00252DE0002427E02046E11704EB38
:101E30005171C91001EB450B0830C11700EB51710E
:101E4000C910A0EBC101C1F107020121914001AA13
:101E500012F80B20114039B1321991B27A1990B2AF
:101E60004A46FEF71AFE06E0321991B27A1990B28C
:101E70005246FEF712FE601C84B20F2CD5DD681CA2
:101E800085B2072DCFDD00BFBAE70000103C000887
:101E90002DE9F04F04460D4616469A46DDF824908B
:101EA00018224FF00C0B202E01DB7F2E01DDBDE848
:101EB000F08FA6F12000C6B24FF4285000F0B8F819
:101EC000201200F0C1F842F6012000F0B1F8E0B2B3
:101ED00000F0BAF842F6022000F0AAF80BEB040179
:101EE000491EC1F30F2000F0AFF842F6032000F0C6
:101EF0009FF80BEB0401491EC8B200F0A5F84FF49F
:101F00002C5000F095F8281200F09EF842F60130AF
:101F100000F08EF8E8B200F097F842F6023000F0D8
:101F200087F85119491EC1F30F2000F08DF842F6D1
:101F3000033000F07DF85119491EC8B200F084F852
:101F40004FF4305000F074F8002327E000271EE023
:101F50004FF0000817E006EBC600144901EB8000C3
:101F600008EB48011944405CB84000F0800018B10B
:101F7000504600F069F802E0484600F065F808F1C4
:101F8000010000F0FF08D845E5DB781CC7B203204C
:101F900092FBF0F0B842DBDC581CC3B2D11702EB65
:101FA0005171B3EBE10FD1DB00BF80E700420008C5
:101FB0002DE9FF4F83B080461746DDF840A0384634
:101FC000FEF724F98346CDF80880119820B1012846
:101FD00005D0022809D105E00C24124D08E0102498
:101FE000114D05E01824114D02E010240E4D00BFE4
:101FF00000BF204604EBD071C1F34709002609E079
:10200000CDF800A0BA5D029906FB0910069B049961
:10201000A847761CABF10100B042F1DA07B0BDE889
:10202000F08F0000B91C0008D91D0008911E00089F
:102030004FF0D841088070474FF0D8421080014AD5
:10204000118070470008006C01490880704700004B
:102050000008006C124AD26942F00202104BDA61A9
:10206000104A1080121F11800E4A203A128842F046
:1020700001020C4B203B1A800A4A2C3A128842F08B
:102080000102084B2C3B1A804523074A1370074A6C
:10209000126842F000524FF0E023C3F8002170476D
:1020A000001002402C0400401DE400E000E100E0CC
:1020B000124AD26942F00402104BDA61104A1080D1
:1020C000121F11800E4A203A128842F001020C4B76
:1020D000203B1A800A4A2C3A128842F00102084B2F
:1020E0002C3B1A804523074A1370074A126842F0B6
:1020F00080424FF0E023C3F80021704700100240F7
:102100002C0800401EE400E000E100E065210548E5
:1021100001700548006840F020004FF0E021C1F850
:102120000401704725E400E004E100E02DE9F05FE0
:1021300005460E46300101F0D1F98146274905FBDD
:1021400001F001F0CBF98246494601F0E5F8074677
:10215000384601F0A3F984B2204601F0BFF9834666
:10216000394601F09BFA82464FF0834101F0CAF9EB
:10217000814601F093F980464FF6FF7000EA04149F
:1021800004EB080084B21648806940F0040014494A
:1021900088611448006820F47F601249086008468E
:1021A000006840F40B6008600D48C06840F480404F
:1021B0000B49C8600846C06820F48040C8600A48DF
:1021C000048042F208000849091D0880084600887A
:1021D00040F024000880BDE8F09F000040420F005E
:1021E0000010024004080140083801400721002087
:1021F0002B4A126842F48032294B1A6000BF284AE9
:102200001268C2F34042002AF9D0254A526822F4EB
:102210000032234B5A601A46526842F480325A60A8
:102220001A46526842EA81425A601A46126842F0DF
:1022300080721A6000BF1A4A1268520E002AFAD041
:10224000174A526822F00102154B5A601A4652682A
:1022500042F002025A6005E0114A5268C2F3870058
:1022600000F003000228F7D10D4A526842F2F03321
:102270009A430B4B5A601A46526842F480625A6085
:102280003222084B1A60064AD26942F40032044BEB
:10229000DA611A46926942F480429A6170470000FE
:1022A00000100240002002401CB5114800780128AF
:1022B0001AD100200F49087001201F214FF6FF732B
:1022C0000DA2CDE900104FF4B4718C20FFF770FE21
:1022D00001204FF6FF711F2309A2CDE900104FF432
:1022E000C8718C20FFF764FE0120074908601CBDFF
:1022F000000000200100002045617379000000000B
:102300004861726400000000140401400B4800782A
:1023100005280ED10A4800883C2807DD08480088B7
:1023200008490988401A0649088002E03C2004490F
:102330000880042004490860704700000000002065
:102340005400002068000020140401401CB51B4804
:102350000078012819D11A4908704FF6FF711F2320
:1023600018A2CDE900104FF4B4718C20FFF720FEC5
:1023700001201F214FF6FF7314A2CDE900104FF486
:10238000C8718C20FFF714FE14E00C480078052873
:1023900006D10620094908700E48FEF76AF809E0E0
:1023A00006480078062805D1052004490870094828
:1023B000FEF75FF80820084908601CBD00000020F7
:1023C00001000020456173790000000048617264DB
:1023D0000000000020A107001404014010B51748B8
:1023E000007830B90120154908701548FEF741F80A
:1023F0001FE012480078012806D102200F4908701A
:102400000F48FEF736F814E00C480078052810D184
:102410000C480088B0F5D27F07DA0A4800880A49DC
:10242000098808440749088003E04FF4D270054941
:10243000088010200549086010BD00000000002041
:1024400040420F00540000206800002014040140A6
:1024500000BFFEE700BFFEE7704700002DE9F8432C
:102460004D48008800F0A5FD074600224B4B00F0C8
:1024700007FE054600F070FD84B24948008800F070
:1024800098FD07460022454B00F0FAFD054600F096
:1024900063FD1FFA80F94FF6FF703C232246194670
:1024A00000904846FEF720FB4FF4784001231422A9
:1024B00000903C4801883C480088FEF73FFA4FF600
:1024C000FF700090394800883C3881B2142340F2F4
:1024D000EE220020FEF708FB002034490090098816
:1024E0003C3988B2142340F2EE227821FEF7FCFA40
:1024F0004FF6FF702D4A009012883C32C2F5F07200
:1025000091B22A4A12883C3290B2142340F2EE2251
:10251000FEF7EAFA4FF6FF700090254800883C3835
:1025200081B214231E220020FEF7DEFA002020498B
:10253000009009883C3988B214231E227821FEF7C6
:10254000D3FA4FF6FF701A4A009012883C32C2F557
:10255000F07291B2164A12883C3290B214231E22B5
:10256000FEF7C2FA0020012340F2ED224FF4F07191
:102570000090FEF7B9FA0020012332224FF4F071E7
:102580000090FEF7B1FA002000F0F4F9002000F00E
:10259000B7F9BDE8F88300006200002000003E406B
:1025A000600000205A000020580000205400002045
:1025B000560000207047704710B500F001F810BDBC
:1025C0000CB50020019000903348006840F4803042
:1025D0003149086000BF3048006800F400300090C6
:1025E0000198401C0190009818B90198B0F5A06FAF
:1025F000F1D12948006800F4003010B101200090AA
:1026000001E0002000900098012843D12348006891
:1026100040F01000214908600846006820F00300DF
:1026200008600846006840F0020008601A484068E8
:10263000194948600846406848600846406840F4C8
:10264000806048600846406820F47C104860084676
:10265000406840F4E81048600846006840F0807028
:10266000086000BF0C48006800F000700028F9D036
:102670000948406820F00300074948600846406860
:1026800040F00200486000BF0348406800F00C00C2
:102690000828F9D10CBD00000010024000200240C3
:1026A0007047000010B51348006840F00100114960
:1026B000086008464068104908400E4948600846CE
:1026C00000680E4908400B4908600846006820F47D
:1026D000802008600846406820F4FE0048604FF4FF
:1026E0001F008860FFF768FF4FF000600449086032
:1026F00010BD0000001002400000FFF8FFFFF6FED2
:1027000008ED00E010B51C48008800F0010058B347
:102710001A480078052827D119480068401C184934
:10272000086008460068102806D100200860154897
:102730000068401C13490860FDF7F6FD0F4800785B
:10274000072811D0FFF78AFE0F4800880F4908803C
:102750000F4800880F4908800F4800880F490880FB
:102760000F4800880F4908800348008820F00100C6
:102770000149088010BD0000100400400000002046
:102780000400002008000020540000205C0000200D
:10279000560000205E00002058000020600000204D
:1027A0005A0000206200002010B52D48008800F07B
:1027B000010000284CD02B480078052835D1FDF7C2
:1027C0008EFE0446032C04D0062C09D0072C29D1F8
:1027D00016E00620234908702348FDF74AFE22E050
:1027E000224800883C2807DD2048008820490988C5
:1027F000401A1E49088002E03C201C49088012E073
:102800001A480088B0F5D27F07DA184800881849BE
:10281000098808441549088003E04FF4D270134931
:10282000088000E000BF00BF12E00E4800780628D4
:102830000ED1FDF754FE0446032C06D105200949AC
:1028400008700948FDF715FE00E000BF00BF00BF9B
:102850000348008820F001000149088010BD0000F5
:10286000100800400000002020A1070056000020B2
:10287000680000201CB51648008800F0200030B326
:1028800014480078022822D11148001D0488012034
:102890004FF478414FF6FF730FA2CDE90010FA21F3
:1028A0002820FFF785FB4FF47840009004F13000BA
:1028B000C2B24FF6FF734FF4E1714FF49470FFF71B
:1028C0008BFA0D48FDF7D5FD0320024908701CBDA9
:1028D00000380140000000205468652072616E6479
:1028E0006F6D206E756D62657220726563656976C5
:1028F00065642069733A2000404B4C0000BFFEE73E
:102900007CB50446174800680A21B0FBF1F515486C
:102910000068B0FBF1F201FB120601204FF6FF71D7
:10292000234611A2CDE900100521C520FFF740FB89
:102930004FF6FF70009005F13000C2B2234605212A
:1029400040F23510FFF748FA4FF6FF70009006F19D
:102950003000C2B22346052140F23D10FFF73CFA99
:102960007CBD00000C000020426F756E6365733AF9
:10297000200000002DE9FC4704462E4800683C2159
:10298000B0FBF1F52B480068B0FBF1F201FB120639
:102990000A2095FBF0F795FBF0F100FB115896FB30
:1029A000F0F996FBF0F100FB116A01204FF6FF7180
:1029B000234621A2CDE9001005210846FFF7F8FAC9
:1029C0004FF6FF70009007F13000C2B22346052198
:1029D0007D20FFF701FA4FF6FF70009008F13000FC
:1029E000C2B2234605218520FFF7F6F901204FF6F4
:1029F000FF71234614A2CDE9001005218D20FFF7B9
:102A0000D7FA4FF6FF70009009F13000C2B22346AA
:102A100005219520FFF7E0F94FF6FF7000900AF1CD
:102A20003000C2B2234605219D20FFF7D5F9BDE84D
:102A3000FC87000008000020456C6170736564200D
:102A400054696D653A2000006D00000038B54FF6FE
:102A5000FF70FDF723FF032412E04FF6FF70E2B290
:102A60004FF478434FF4A5710090C820FFF7BCF8ED
:102A70000848FDF7FEFC4FF6FF70FDF70FFF641EE0
:102A8000002CEAD10420044908704FF6FF70FDF7CE
:102A900005FF38BD80969800000000201CB54FF659
:102AA000FF70FDF7FBFE01204FF478414FF6FF73F6
:102AB00016A2CDE900104FF4A0718C20FFF778FA30
:102AC00001201F214FF6FF7319A2CDE900104FF42A
:102AD000B4718C20FFF76CFA01204FF6FF711F23B1
:102AE00015A2CDE900104FF4C8718C20FFF760FAF1
:102AF00001204FF478414FF6FF7311A2CDE9001089
:102B00004FF4DC718C20FFF753FA1CBD506C6561EB
:102B100073652073656C65637420746865206469EF
:102B200066666963756C7479206C6576656C3A00CD
:102B30004561737900000000486172640000000084
:102B40005072657373204B45593020746F20656E49
:102B50007465722E000000001CB51148007868B939
:102B600002204FF6FF714FF478430EA2CDE900101A
:102B70004FF4A071F020FFF71BFA10E0084800782E
:102B800001280CD102204FF6FF714FF478430CA2BC
:102B9000CDE900104FF4A071F020FFF709FA1CBD39
:102BA00002000020506C617965722042206C6F73C6
:102BB0006573207468652067616D65210000000001
:102BC000506C617965722041206C6F73657320745D
:102BD00068652067616D6521000000001CB54FF637
:102BE000FF70FDF75BFE02201F214FF6FF7318A256
:102BF000CDE900104FF4A0716420FFF7D9F901204E
:102C00004FF478414FF6FF7318A2CDE900104FF44E
:102C1000B4718C20FFF7CCF901204FF478414FF6C6
:102C2000FF7318A2CDE900104FF4C8718C20FFF794
:102C3000BFF901204FF478414FF6FF7315A2CDE99B
:102C400000104FF4DC718C20FFF7B2F91CBD0000BE
:102C500057656C636F6D6520746F206D696E6920B8
:102C600050726F6A656374210000000054686973D4
:102C7000206973207468652046696E616C204C6120
:102C8000622E000041726520796F75207265616463
:102C9000793F00004F4B21204C65742773207374DB
:102CA0006172742E0000000010B5F0200B490880FE
:102CB0000B4908800B49088046200B4908800020FA
:102CC0000A4908600A4908604FF6FF70FDF7E6FD03
:102CD000FFF7C4FB05200749087010BD5400002011
:102CE00056000020580000205A0000200800002054
:102CF0000C000020000000201CB54FF6FF70FDF70F
:102D0000CDFD02204FF478414FF6FF7305A2CDE9C7
:102D10000010C8212820FFF74BF903200A4908704A
:102D20001CBD000055736520555341525420666FF9
:102D30007220612072616E646F6D206469726563D8
:102D400074696F6E2E00000000000020FFF74EFA3D
:102D5000FDF720FFFDF7DAFBFDF792FBFDF7AEFB79
:102D600040F2833141F28730FFF774F940F2C1112C
:102D700041F28730FFF79CF94FF461514820FFF78B
:102D8000D5F9FFF7C3F90520FDF774FD1C48FDF7E1
:102D900070FB00201B490870FFF720FF00BF194897
:102DA00000780028FBD01648FDF763FBFFF776FE9E
:102DB00000BF144800780128FBD01148FDF759FBEB
:102DC000FFF79AFF00BF0F4800780228FBD00C489D
:102DD000FDF74FFBFFF73AFE00BF0A4800780328D3
:102DE000FBD0FFF761FF00BF064800780728FBD142
:102DF0000348FDF73EFBFFF7AFFE00BFFEE7000014
:102E000040420F000000002010B591EA030F48BFB8
:102E100083F0004300F13C81841A71EB030C05D26E
:102E2000121943EB0C03001B61EB0C01DFF824E1EA
:102E30004FEA1154A4EB135C1EEA430F18BF9EEA3D
:102E4000445F73D023EA0E03DCF1200E21EA045123
:102E500043F4801332D322FA0CFE10EB0E0023FA57
:102E60000CFE41EB0E01CCF1200E03FA0EFE10EB2E
:102E70000E0051F10001B1F5801FCCF1200E32D2CD
:102E800001EB045112FA0EF2BDE8104058BF704732
:102E9000401C38BF5FEA420218BF7047002814BFC9
:102EA00020F0010041F100014FEA410313F5001F3A
:102EB00038BF7047A1F1C04100F0DCB8012A43EBF4
:102EC0000302ACF1200CDCF11F0E32BF4FF0000EFC
:102ED00023FA0CF310EB030041EB0451B4EB115F48
:102EE000D0D0A1EB045101F5801149085FEA300010
:102EF00001EB04510ED350F1000038BF12FA0EFE60
:102F000008D1BDE81040C9E7401C38BF5FEA420263
:102F1000CAD1C3E7BDE810404FEA410313F5001FD3
:102F200038BF7047A1F1C04100F0A4B89EEA445FE9
:102F300008D011EA5E0FBDE8104004BF01F0004167
:102F400000207047BDE8104070B500F045F800BFA4
:102F500064FBBE3E0000E0FF4FEA1153A3F580631F
:102F6000D3F11E03A8BFD3F1200C08DB4FF00042C1
:102F700042EAC12252EA505232FA03F07047094243
:102F80000BD4102BC4BF0020704703F5787CBCF134
:102F9000FF3F05D04FF0FF3070474FF00000704703
:102FA00070B500F019F800BF4992248000207047E6
:102FB000F0E7B0FA80F310FA03F10AD0C3F11D0371
:102FC00003F580634FEA41504FEA035202EBD121EF
:102FD00070474FF0000070470EF1020E2EF0030E06
:102FE0005EF8046B364205D4012A43EB030515F560
:102FF000001F12D8012841EB010C1CF5001F0CD852
:103000000ED14FEAD17C15F5001F0CEB4C0C0CF1E6
:10301000020C08BF4CEBD37C04E04FF0080C01E03D
:103020004FEAD37C0CEB4C0526FA05F606F00706B2
:10303000B6F1040C06D20EEB860CBDE870404CF0E5
:10304000010C6047DFE80CF0090B02024FF0004171
:103050004FF00000A1F5002170BD1946104601286F
:1030600051EB010418BFD4F5001484BF002001F017
:10307000004170BD0808A0F500114FEA310170470A
:1030800010B591EA030F48BF83F000433FF5C4AE8B
:10309000841A71EB030C07D212198CF0004C43EB2D
:1030A0000C03001B61EB0C01DFF8A4E14FEA1154A3
:1030B000A4EB135C1EEA430F18BF9EEA445F00F0C6
:1030C000B08023EA6E03524221EA0451C3EB6E033F
:1030D00038BF5B1EDCF1200E25D322FA0CFE10EB6C
:1030E0000E0043FA0CFE41EB0E01CCF1200E03FA68
:1030F0000EFE10EB0E0051F10001CCF1200E29D490
:1031000012FA0EF201EB0451BDE8104058BF7047AF
:10311000401C1CBFB2F1004F704700280CBF491C77
:1031200020F00100704712EB020E43EB030218BFC0
:103130004FF0010E4EEA4202ACF1200CDCF11E0E03
:1031400054D943FA0CFE10EB0E0051F1FF31CCF1D3
:103150001E0ED5D50EF1010E12FA0EFE404141EBC6
:10316000010101EB445C5FEA5C5C10D910EBDE709E
:1031700001EB045138BFBEF1004FBDE8104018BF4D
:10318000704700280CBF491C20F00100704730D266
:103190004FEAD42C11F5001124F400641BD0B1FACD
:1031A00081F20B3AA41AA41ED2F12003914030FA06
:1031B00003F31943904001EBCC71002C01EB045157
:1031C000BDE81040A8BF704701F1C0414FF00000BA
:1031D00001F000417047B0FA80F310FA03F100D11A
:1031E00010BDE41A173C4805C90AE4E701EB045195
:1031F00010BD491001EB0451BDE810404FEA30000A
:1032000002E04FF0000170474A0008BF0042F8D0CA
:10321000B2F5001F28BF704701F000414FF00000D9
:1032200070479EEA445F07D011EA5E0FBDE8104088
:1032300004BF002100207047BDE8104070B5FFF7C3
:10324000CBFE00BF40DFF63E83F0004110467047E2
:103250000000E0FF90EA010F48BF81F0004100F15B
:103260002E82421A3CBF801A89184FEAD0524FF082
:103270007F4C1CEA410FA2EBD15318BF9CEA026FAE
:1032800000F03B804FF0004C4CEA00204CEA01215A
:1032900021FA03FC10EB0C0C1ED202F1FF325FEAA4
:1032A0001C2040EBC25038BF70471CF07F0F4FEA24
:1032B000400C18BFBCF17F4F38BF7047C3F12003EB
:1032C000994008BF20F00100BCF17F4F38BF704724
:1032D000A0F1C04000F0DDB94FEA3C00000A40EB2D
:1032E000C25028BF1CF0FF0F4FEA400CE6D018BFB9
:1032F000BCF17F4F38BF7047EAE79CEA026F05D008
:1033000010EA5C0F08BF00F00040704710B500F0F5
:103310007AF900BF64FBBE3E4FF47F0C1CEAD0126A
:103320001EBF1CEAD11392EA0C0F93EA0C0F00F0B7
:10333000858090EA010F48BF42F4807240F4000C8F
:1033400041F400002CF07F4120F07F4000B5814225
:10335000A2EB03020FF2081CACEB504EC0F10000D0
:103360009EF800E04FEA4E0E00FB0EFC38BF49000D
:103370004FEA2C1C02F5FA020CFB0EF34FEACE1EAC
:103380004FEA112C4FEAC1210EEB635E42EB224261
:103390000EFB0CFC4FEA1C5300FB03114FEA112CEF
:1033A0004FEA01310EFB0CFC4FEADC4C00FB0C1128
:1033B000C14228BF09184CEB03335DF804EB10EB56
:1033C000410143EBC250B2F57C0F38BF704729D59D
:1033D00012F0F00F1CBF00F1C04000F00040704739
:1033E000008182838485868788898B8C8D8E8F91DE
:1033F0009293959697999A9C9D9FA0A2A3A5A7A802
:10340000AAACAEB0B2B3B5B7B9BCBEC0C2C5C7C92D
:10341000CCCED1D4D7D9DCDFE2E6E9ECF0F3F7FA91
:10342000FE0000004FEA400C0CF1807CBCF17E4FA6
:1034300028BF7047B0F1C04000F02BB990EA010FEF
:103440000CEAD11348BF42F48072624538BF63452D
:1034500007D213F47F0F16D080EA010000F000407D
:10346000704710B500F0CFF8097EFC3E00F005B8BB
:1034700080EA010000F00040704780EA010000F09F
:10348000004000F006B912F47F0F04BF02487047F5
:1034900080EA010000F0FDB80000C07FC10DD1F14D
:1034A0009E0206DB4FEA002343F0004323FA02F0BA
:1034B0007047004207D54FEA4001B1F1FE4F02D2FA
:1034C0004FF00000704710B500F09DF8499224803D
:1034D000002070476FEA200070470000B0FA80F3C8
:1034E00010FA03F2C3F19D030AD0D90501EB1220B3
:1034F000530638BF704700F1010008BF20F00100FB
:10350000704700004FF47F0C1CEAD0121EBF1CEA6B
:10351000D11392EA0C0F93EA0C0F00F0478090EA67
:10352000010F48BF42F480724FF0004C4CEA00207B
:103530004CEA012102EB0302A0FB0113A2F50002F9
:10354000002918BF43F001035B0028BF4FEA330393
:1035500042EB22425FEA132C4CEBC2502EBFBCEB75
:10356000436FB2F57C0F70474FEA036CBCF1004F1C
:1035700008BF20F00100B2F57C0F38BF70470BD5B3
:1035800082F0FF0212F5803FC8BF704700F1C040D3
:10359000D8BF00F00040704700F5000C5FEA4C0C0B
:1035A00048BF7047B0F1C04000F073B890EA010F17
:1035B0000CEAD11348BF42F48072624538BF6345BC
:1035C00004D280EA010000F00040704710B500F01E
:1035D0001AF800BF8900013E00F007B800F009B8F2
:1035E0005FEA410C5FEA1C6C08D080EA010000F041
:1035F00050B85FEA400C5FEA1C6CF6D14FF0004017
:10360000A0F5800070470EF1020E2EF0030E5EF85A
:10361000044B244204D44FEA4102B2F17F4F11D847
:103620004FEA4003B3F17F4F0CD80ED14FEAD07C64
:10363000B2F17F4F0CEB4C0C0CF1020C08BF4CEBC1
:10364000D17C04E04FF0080C01E04FEAD17C0CEB98
:103650004C0324FA03F404F00704B4F1040C06D27A
:103660000EEB840CBDE810404CF0010C6047DFE825
:103670000CF0070802024FF00040A0F5800010BDDA
:103680000846420018BFD2F1807288BF00F00040A7
:1036900010BDFF2141EAD050C005704780F00040C6
:1036A00090EA010F7FF5DDAD81F0004100F007B831
:1036B00090EA010F48BF81F000413FF5D2AD421AB8
:1036C00004D882F00042A0EB020011444FEAD0522D
:1036D0004FF07F4C1CEA410FA2EBD15318BF9CEA7C
:1036E000026F4AD04FF0004C4CEA00204CEA012116
:1036F00021FA03FCB0EB0C0C0FD412F0FE0F36D005
:103700005FEA4C001DD5001240EBC25038BF704735
:103710001CF03F0F18BF70470BE0A2F101025FEAF7
:103720001C2040EBC25038BF70471CF07F0F18BF01
:103730007047C3F12003994014BF401E20F00100E0
:10374000704780084FEA122308BF7047B0FA80FC28
:10375000A2EB0C02CCF1280C60FA0CF093EA122FC9
:1037600004BF00EBC25070474FEAC3707047130AA2
:103770005FEADC1008BF7047F6E79CEA026F04D0EE
:1037800010EA5C0F08BF0020704710B5FFF73BFF41
:1037900040DFF63E81F0004070470000000000006E
:1037A0000000000000000000000000003F4000009A
:1037B0000000000000003000400030004000000029
:1037C00009000BC03D000BC03D00090018C024409B
:1037D0007FE0224031800000180024C01B000D80D3
:1037E0003240018003801C4027401C80074000407D
:1037F0001000600000000000000000000000000059
:1038000000001F80204040200000402020401F80FA
:1038100000000000090006001F80060009000000EB
:10382000040004003F800400040000000010006059
:103830000000000000000000040004000400040078
:103840000400000000000040000000000000000034
:10385000002001C006003800400000001F8020400A
:10386000204020401F800000000010403FC000406A
:103870000000000018C021402240244018400000F1
:1038800010802040244024401B80000002000D00D6
:1038900011003FC0014000003C80244024402440EF
:1038A000238000001F802440244034400380000017
:1038B0003000200027C03800200000001B8024407A
:1038C000244024401B8000001C0022C022402240D3
:1038D0001F80000000000000084000000000000001
:1038E0000000000004600000000000000000040070
:1038F0000A00110020804040090009000900090069
:103900000900000000004040208011000A0004006F
:103910001800200023402400180000001F802040D1
:10392000274029401F400000004007C039000F0019
:1039300001C0004020403FC0244024401B800000C4
:103940001F802040204020403080000020403FC0A9
:10395000204020401F80000020403FC024402E40D7
:1039600030C0000020403FC024402E003000000046
:103970000F001080204022403380020020403FC0D2
:10398000040004003FC02040204020403FC02040B1
:10399000204000000060202020203FC020002000A8
:1039A00020403FC024400B0030C0204020403FC09A
:1039B00020400040004000C03FC03C0003C03C002D
:1039C0003FC0000020403FC00C4023003FC020000B
:1039D0001F802040204020401F80000020403FC02A
:1039E00024402400180000001F802140214020E0D6
:1039F0001FA0000020403FC02440260019C0004006
:103A000018C0244024402240318000003000204073
:103A10003FC020403000000020003F8000400040B8
:103A20003F80200020003E0001C007003800200039
:103A3000380007C03C0007C038000000204039C0F3
:103A4000060039C0204000002000384007C0384040
:103A500020000000304021C02640384020C0000037
:103A6000000000007FE040204020000000007000C7
:103A70000C000380004000000000402040207FE058
:103A800000000000000020004000200000000000B6
:103A900000100010001000100010001000000000C6
:103AA00040000000000000000000028005400540CA
:103AB00003C0004020003FC00440044003800000D9
:103AC0000000038004400440064000000000038022
:103AD000044024403FC000400000038005400540F2
:103AE00003400000000004401FC024402440200088
:103AF000000002E0055005500650042020403FC061
:103B00000440040003C000400000044027C00040FF
:103B10000000000000100010041027E0000000006A
:103B200020403FC00140070004C004402040204026
:103B30003FC000400040000007C0040007C0040070
:103B400003C00000044007C00440040003C000405C
:103B5000000003800440044003800000041007F0CC
:103B6000045004400380000000000380044004501F
:103B700007F00010044007C00240040004000000E9
:103B8000000006400540054004C00000000004009D
:103B90001F800440004000000400078000400440F3
:103BA00007C000400400070004C0018006000400B4
:103BB000060001C0070001C006000000044006C066
:103BC000010006C0044000000410071004E001805A
:103BD000060004000000044005C006400440000048
:103BE0000000000004007BE0402000000000000016
:103BF0000000FFF000000000000040207BE0040017
:103C00000000000040008000400020002000400034
:103C100000000000000000000000000000000000A4
:103C20000000000000001FCC000C0000000000009D
:103C30000000080030006000080030006000000054
:103C4000022003FC1E20022003FC1E200220000094
:103C500000000E1811043FFF10840C7800000000D3
:103C60000F0010840F3800C0077818840078000017
:103C700000780F8410C411240E9800E4008400081A
:103C80000800680070000000000000000000000054
:103C900000000000000007E01818200440020000A7
:103CA000000040022004181807E000000000000097
:103CB0000240024001800FF00180024002400000FB
:103CC0000080008000800FF80080008000800000ED
:103CD0000001000D000E00000000000000000000C8
:103CE0000000008000800080008000800080008054
:103CF0000000000C000C00000000000000000000AC
:103D00000000000600180060018006001800200076
:103D1000000007F0080810041004080807F000006D
:103D20000000080408041FFC000400040000000058
:103D300000000E0C10141024104411840E0C00000E
:103D400000000C1810041104110412880C700000FB
:103D5000000000E00320042408241FFC00240000CD
:103D600000001F98108411041104108810700000C6
:103D7000000007F008881104110418880070000082
:103D800000001C00100010FC13001C0010000000BC
:103D900000000E3811441084108411440E380000C5
:103DA00000000700088C10441044088807F0000049
:103DB000000000000000030C030C000000000000E5
:103DC00000000000000101060000000000000000EB
:103DD00000000080014002200410080810040000C8
:103DE00002200220022002200220022002200000E5
:103DF00000001004080804100220014000800000A8
:103E000000000E001200100C106C10800F0000005B
:103E100003E00C1813E4142417C4082807D000008A
:103E20000004003C03C41C40074000E4001C0004E4
:103E300010041FFC1104110411040E88007000000E
:103E400003E00C1810041004100410081C100000EB
:103E500010041FFC100410041004080807F00000F0
:103E600010041FFC1104110417C4100408180000EA
:103E700010041FFC1104110017C0100008000000FE
:103E800003E00C181004100410441C7800400000DB
:103E900010041FFC10840080008010841FFC10049C
:103EA0000000100410041FFC1004100400000000A7
:103EB00000030001100110011FFE1000100000009F
:103EC00010041FFC110403801464181C100400006B
:103ED00010041FFC1004000400040004000C000087
:103EE00010041FFC1F0000FC1F001FFC100400003A
:103EF00010041FFC0C04030000E010181FFC10004D
:103F000007F00808100410041004080807F0000067
:103F100010041FFC10841080108010800F0000001F
:103F200007F0081810241024101C080A07F20000DB
:103F300010041FFC1104110011C011300E0C0004FC
:103F400000000E1C11041084108410441C38000062
:103F50001800100010041FFC1004100018000000CE
:103F600010001FF810040004000410041FF81000D3
:103F700010001E0011E0001C007013801C001000D7
:103F80001FC0103C00E01F0000E0103C1FC00000FC
:103F90001004180C163401C001C01634180C10049B
:103FA00010001C00130400FC13041C00100000008F
:103FB0000804101C1064108413041C041018000062
:103FC0000000000000007FFE4002400240020000AE
:103FD000000030000C0003800060001C00030000A3
:103FE00000004002400240027FFE0000000000008E
:103FF00000000000200040004000400020000000C1
:1040000000010001000100010001000100010001A8
:104010000000400040002000000000000000000000
:1040200000000098012401440144014400FC000404
:1040300010001FFC008801040104008800700000CB
:1040400000000070008801040104010400880000E1
:104050000000007000880104010411081FFC000426
:10406000000000F8014401440144014400C800007C
:104070000000010401040FFC1104110411001800D8
:10408000000000D601290129012901C9010600000B
:1040900010041FFC008401000100010400FC000466
:1040A00000000104190419FC0004000400000000D1
:1040B0000000000300010101190119FE00000000C9
:1040C00010041FFC0024004001B4010C0104000096
:1040D0000000100410041FFC000400040000000095
:1040E000010401FC0104010001FC0104010000FCC9
:1040F000010401FC008401000100010400FC000433
:10410000000000F8010401040104010400F80000AB
:10411000010101FF00850104010400880070000016
:1041200000000070008801040104010501FF000186
:104130000104010401FC008401040100018000006D
:10414000000000CC01240124012401240198000076
:1041500000000100010007F8010401040000000054
:10416000010001F8000400040004010801FC00043F
:10417000010001800170000C00100160018001004D
:1041800001F0010C003001C00030010C01F0010011
:1041900000000104018C00740170018C0104000016
:1041A000010101810171000E001801600180010010
:1041B00000000184010C013401440184010C000061
:1041C000000000000000000001003EFC4002400230
:1041D0000000000000000000FFFF000000000000E1
:1041E0000000400240023EFC010000000000000010
:1041F000000060008000800040004000200020009F
:1042000000000000000000000000000000000000AE
:10421000000000000000000000000000000000009E
:10422000000000000000000000000000000000008E
:104230000000000F80380FFE380F803800000000AB
:10424000000000000000000000000000000001006D
:10425000000600000C0000380000310000060000DD
:104260000C000038000030000000000000000000DA
:1042700061800067F807F98000618000618000615B
:10428000800061800067F807F9800061800000000D
:1042900000000000000001C0E003E0F00630080468
:1042A00018081FFFFE040E080787F00381E00000D6
:1042B0000000000001F000060C00040408060C7069
:1042C00001F9C0000E00003BE000EC1807080804EC
:1042D0000C180003E00000000001E00007F003F804
:1042E00018041C0804170807E1D003C0E00023B03D
:1042F000003C080020080000100000000000000141
:1043000000003100003200001C000000000000002E
:10431000000000000000000000000000000000009D
:10432000000000000000000000000000000000008D
:104330007F0001FFC00780F00C001810000420006F
:10434000020000000000002000021000040C001811
:104350000780F001FFC0007F0000000000000000A7
:1043600000000000000000000000000042000066A5
:1043700000006600003C0000180003FFC0001800A9
:10438000003C0000660000660000420000000000E3
:10439000080000080000080000080000080001FFF5
:1043A000C000080000080000080000080000080025
:1043B00000000000000100003100003200001C007D
:1043C00000000000000000000000000000000000ED
:1043D00000000000000000000800000800000800C5
:1043E00000080000080000080000080000080000A5
:1043F00008000008000000000000000000000000AD
:104400003800003800003800000000000000000004
:10441000000000000000000000000000000000009C
:10442000000600001C000070000180000E00003833
:104430000000C0000700001C000030000000000069
:10444000000000007F8001FFE00380700600180478
:10445000000804000806001803807001FFE0007FD8
:1044600080000000000000000000010008010008BA
:1044700001000803FFF807FFF8000008000008002B
:10448000000800000000000000000001C03802C069
:1044900058040098040118040218040418061C1893
:1044A00003F81801E0F8000000000000000000011F
:1044B000C0E003C0F0040008040808040808061857
:1044C0000803F41801E7F00001E00000000000001C
:1044D000000000000300000D00001100006100005A
:1044E000810803010807FFF80FFFF8000108000129
:1044F000080000000000000000E007FCD0060808EB
:10450000061008061008061008061838060FF006F0
:1045100007C0000000000000000000003F8001FF15
:10452000E00384300208180410080410080410087E
:10453000071810030FF00007C00000000000000083
:10454000000003C0000700000600000600F8060790
:10455000F806180006E00007000006000000000052
:1045600000000001E1E003F7F0063410041808042D
:104570001808040C08040C0806161803F3F001C10F
:10458000E000000000000000F80003FC30030638E3
:104590000402080402080402080404100308F001DD
:1045A000FFC0007F000000000000000000000000CD
:1045B0000000000000000000703800703800703803
:1045C00000000000000000000000000000000000EB
:1045D000000000000000000000000000301A003061
:1045E0001C000000000000000000000000000000AF
:1045F000000000000000000800001400002200007D
:1046000041000080800100400200200400100800EA
:10461000080000000000000021000021000021002F
:1046200000210000210000210000210000210000E5
:104630002100002100000000000000000000080030
:1046400008040010020020010040008080004100AA
:104650000022000014000008000000000000000319
:10466000C00004C000040000080038080F38080823
:10467000380810000C300007E00003C00000000004
:10468000000000003F8000FFE0038070020F100672
:10469000708804C088048308047F8802C0900301E6
:1046A0002000FE400000080000180001F8003E084D
:1046B00001C20007020007E20000FE00001FC80060
:1046C00001F800003800000804000807FFF807FFA1
:1046D000F80408080408080408080408080618086C
:1046E00003F41801E7F00001E00000000000000002
:1046F0003F8001FFE00380700200180400080400FE
:10470000080400080400100600200780C000000014
:1047100004000807FFF807FFF80400080400080475
:10472000000804001802001003807001FFE0007F01
:104730008000000004000807FFF807FFF8040808DD
:10474000040808040808040808043E0804000806D1
:10475000001801006000000004000807FFF807FFD0
:10476000F8040808040800040800040800043E00D7
:1047700006000006000001800000000000000000AC
:104780003F8001FFE0038070060018040008040267
:10479000080402080203F00783F000020000020090
:1047A00004000807FFF807FFF804080800080000E5
:1047B000080000080000080004080807FFF807FFC9
:1047C000F8040008000000000000040008040008CD
:1047D00004000807FFF807FFF804000804000804B5
:1047E00000080000000000000000000000060000BB
:1047F0000700000104000104000104000307FFFE9C
:1048000007FFFC0400000400000400000400080787
:10481000FFF807FFF8040C08001800003E0004C76A
:10482000800503C80600F8040038040018000008DA
:1048300004000807FFF807FFF8040008000008005C
:104840000008000008000008000008000018000030
:104850006000000004000807FFF807800807FC005C
:10486000007FC00003F80007C00078000780080739
:10487000FFF807FFF804000804000807FFF8070026
:104880000803C00000E000003800001E0000070020
:104890000001C00400F007FFF80400000000000061
:1048A0007F8001FFE0038070060018040008040008
:1048B0000806001803003001FFE0007F80000000C0
:1048C00004000807FFF807FFF804040804040004C4
:1048D0000400040400040400060C0003F80001F0C6
:1048E00000000000000000007F8001FFE0038070F6
:1048F0000600880400880400C806003C03003E014E
:10490000FFE6007F8400000004000807FFF807FFAF
:10491000F8040808040800040C00040F00040BC08D
:104920000610F003F03801E0080000080000000164
:10493000E0F803F030063010041808041808040CDE
:1049400008040C080206180207F00781E0000000C6
:1049500001800006000004000004000004000807B5
:10496000FFF807FFF8040008040000040000060038
:104970000001800004000007FFE007FFF0040018BA
:1049800000000800000800000800000800000804FB
:10499000001007FFE004000004000006000007E02C
:1049A0000007FE00041FE00001F80000380001E0ED
:1049B000043E0007C00006000004000004000007D9
:1049C000E00007FFC0041FF80007C007F80007FF5A
:1049D00080043FF80007C004F8000700000400004E
:1049E00000000004000806001807C07805F1C800A0
:1049F0003E00001F800463E80780F80600180400EA
:104A00000800000004000006000007800007E0081E
:104A1000047C08001FF80007F800180804E00807E5
:104A2000000006000004000000000001000806006D
:104A3000380400F80403E8040F08047C0805F008B3
:104A400007C0080700180400600000000000000014
:104A500000000000000000000000003FFFFE2000FA
:104A600002200002200002200002200002000000BC
:104A700000000000000008000007000000C0000067
:104A800038000006000001C000003000000E0000E9
:104A900001000000000000000000200002200002D1
:104AA0002000022000022000023FFFFE0000000064
:104AB00000000000000000000000000000000000F6
:104AC000000800001000003000002000003000004E
:104AD00010000008000000000000000000000100BD
:104AE00000010000010000010000010000010000C1
:104AF00001000001000001000001000001000001B0
:104B00000000000000000000002000002000001055
:104B10000000100000000000000000000000000085
:104B2000000000000000000000F00019F8001B1851
:104B3000002208002608002408002410003FF80086
:104B40001FF800000800001800000004000007FF24
:104B5000F80FFFF0001818001008002008002008C7
:104B6000003018001FF0000FC0000000000000001F
:104B700007C0001FF00018300020080020080020A7
:104B800008003C08001C100000600000000000004D
:104B90000000000007C0001FF000381800200800C7
:104BA000200800200804101007FFF80FFFF0000095
:104BB000100000000000000000000007C0001FF00F
:104BC00000123000221800220800220800320800DB
:104BD0001E10000E20000000000000002000002039
:104BE0000800200801FFF803FFF806200804200849
:104BF000042008072000030000000000000000005F
:104C0000000E000E6E001FF30031B10020B1002035
:104C1000B1003191001F13002E1E00200E00300045
:104C200000000004000807FFF80FFFF8001008005C
:104C30002000002000002008003FF8001FF80000BE
:104C4000080000000000000000000020080020080C
:104C5000002008063FF8063FF800000800000800A2
:104C6000000800000000000000000000000000003C
:104C700003000003002001002001002003063FFE86
:104C8000063FFC00000000000000000000000004DF
:104C9000000807FFF80FFFF8000188000300002F4D
:104CA000C00038F80020380020080000080000008C
:104CB00000000000000004000804000804000807C9
:104CC000FFF80FFFF80000080000080000080000CF
:104CD00000000000002008003FF8003FF800100826
:104CE000002000003FF8003FF800100800200000FE
:104CF0003FF8003FF8000008000000002008003FD7
:104D0000F8003FF800100800100000200000200804
:104D1000003FF8001FF8000008000000000000003D
:104D200007C0000FF00018300030080020080020F5
:104D300008003008001830000FF00007C000000025
:104D4000000000002001003FFF003FFF00101100A5
:104D50002009002008002008003038001FF0000F54
:104D6000C00000000000000007C0001FF00038185D
:104D7000002008002008002009001011001FFF007B
:104D80003FFF000001000000002008002008002074
:104D900008003FF8003FF80008080010080020084D
:104DA0000020000030000030000000000000000083
:104DB0000000000C78001E180033080023080021B2
:104DC000080021880021980030F0003860000000C1
:104DD00000000000200000200000200000FFF00381
:104DE000FFF8002008002008002008000030000024
:104DF00000000000000000002000003FF0007FF8ED
:104E0000000018000008000008002010003FF80013
:104E10007FF00000100000000000000020000030C3
:104E200000003C00003F800023F00000780000708C
:104E3000002380003C000030000020000020000023
:104E40003C00003FE00023F80000E0002700003EA7
:104E500000003FE00021F80001E0003E00002000DB
:104E6000000000002008002008003838003E6800DC
:104E700027800003C8002CF80038380020180020D4
:104E800008000000000000002000003003003C018A
:104E9000003F830023EC000070002380003C0000F2
:104EA000200000200000000000000000000000388A
:104EB000080020380020F80023E8002F88003E0872
:104EC00000380800201800007000000000000000FA
:104ED00000000000000000000000000008000014B6
:104EE000001FF7FC30000620000200000000000058
:104EF00000000000000000000000000000000000B2
:104F00000000FFFFFF0000000000000000000000A4
:104F10000000000000000000000020000230000639
:104F20001FF7FC0014000008000000000000000053
:104F300000000000000000000000001800006000F9
:104F400000400000400000200000100000080000A9
:104F50000400000400000C00001000000A003700EC
:104F600000000A0041000A000A00370041000A0060
:104F70004B0037000A00370082000A0000000A00D8
:104F80004B00370000000A000A0037000A00370013
:104F900041000A00010001000100010001000100C0
:104FA00000000000010001000000000000000000FF
:104FB00001000100000001000100000001000100EB
:104FC00001000100010000000000010000000100DC
:104FD00001000000000001000100010000000100CC
:104FE00001000000010001000000000001000100BC
:104FF00001000100010001000100010000000000AB
:10500000000000000100010001000100010001009A
:10501000010001000100010000000000010001008A
:105020004050000800000020700000006C010008E3
:10503000B0500008700000206006000088010008E1
:105040000000000000000000000000000000000060
:105050000400000009000000020000000800000039
:10506000050000000500000008000000020000002C
:1050700009000000FEFFFFFF09000000FBFFFFFF2B
:1050800008000000F8FFFFFF05000000F7FFFFFF2A
:1050900002000000F000F000F0004600F000F00018
:1050A000F0004600050000000500000002000000BE
:0400000508000131BD
:00000001FF
