:020000040800F2
:1000000060060020B101000829040008210400084E
:10001000250400086B020008A90500080000000084
:100020000000000000000000000000002D04000897
:100030006F020008000000002B04000819050008EA
:10004000CB010008CB010008CB010008CB01000860
:10005000CB010008CB010008CB010008CB01000850
:10006000CB010008CB010008CB010008CB01000840
:10007000CB010008CB010008CB010008CB01000830
:10008000CB010008CB010008CB010008CB01000820
:10009000CB010008CB010008CB010008CB01000810
:1000A000CB010008CB010008CB010008CB01000800
:1000B000CB0100087D050008CB010008CB0100083A
:1000C000CB010008CB010008CB010008CB010008E0
:1000D000CB010008CB010008CB010008CB010008D0
:1000E000CB010008CB010008CB010008CB010008C0
:1000F000CB010008CB010008CB010008CB010008B0
:10010000CB010008CB010008CB010008CB0100089F
:10011000CB010008CB010008CB010008CB0100088F
:10012000CB010008CB010008CB010008CB0100087F
:1001300000F002F800F02CF80AA090E8000C8244CD
:100140008344AAF10107DA4501D100F021F8AFF2AA
:10015000090EBAE80F0013F0010F18BFFB1A43F0A5
:1001600001031847680400007804000000230024FD
:1001700000250026103A28BF78C1FBD8520728BFB7
:1001800030C148BF0B6070471FB51FBD10B510BD13
:1001900000F031F81146FFF7F7FF00F007FA00F022
:1001A0004FF803B4FFF7F2FF03BC00F057F800006C
:1001B0000948804709480047FEE7FEE7FEE7FEE7FB
:1001C000FEE7FEE7FEE7FEE7FEE7FEE70448054937
:1001D000054A064B704700001D0500083101000864
:1001E0006000002060060020600200206002002005
:1001F000704770477047754600F02CF8AE46050012
:100200006946534620F00700854618B020B5FFF731
:10021000DDFFBDE820404FF000064FF000074FF033
:1002200000084FF0000B21F00701AC46ACE8C00914
:10023000ACE8C009ACE8C009ACE8C0098D4670471D
:1002400010B50446AFF300802046BDE81040FFF72C
:10025000A8BF000000487047000000200149182096
:10026000ABBEFEE726000200704700BFFEE7704706
:100270001848806940F0080016498861084680697E
:1002800040F0400088611448006820F47000124972
:1002900008600846006840F4401008600E481030BE
:1002A000006840F020000C49103108600B480068DD
:1002B00020F47000094908600846006840F44010C6
:1002C000086006481030006840F0200003491031F3
:1002D0000860704700100240000C01400018014007
:1002E000014601F007021202054B18684FF6FF03A2
:1002F0001840044B18431043014B1860704700002E
:100300000CED00E00000FA05124AD26942F0020248
:10031000104BDA61104A1080121F11800E4A203AE9
:10032000128842F001020C4B203B1A800A4A2C3AF8
:10033000128842F00102084B2C3B1A804523074AE1
:100340001370074A126842F000524FF0E023C3F8DE
:1003500000217047001002402C0400401DE400E022
:1003600000E100E0072100202B4A126842F48032AD
:10037000294B1A6000BF284A1268C2F34042002A83
:10038000F9D0254A526822F40032234B5A601A46AB
:10039000526842F480325A601A46526842EA8142F8
:1003A0005A601A46126842F080721A6000BF1A4AF8
:1003B0001268520E002AFAD0174A526822F001023F
:1003C000154B5A601A46526842F002025A6005E024
:1003D000114A5268C2F3870000F003000228F7D1E7
:1003E0000D4A526842F2F0339A430B4B5A601A4658
:1003F000526842F480625A603222084B1A60064A00
:10040000D26942F40032044BDA611A46926942F42E
:1004100080429A61704700000010024000200240B4
:1004200000BFFEE700BFFEE770477047704710B59A
:1004300000F002F810BD00000CB500200190009003
:100440003348006840F480303149086000BF3048CC
:10045000006800F4003000900198401C0190009862
:1004600018B90198B0F5A06FF1D12948006800F4DF
:10047000003010B10120009001E0002000900098B1
:10048000012843D12348006840F01000214908604A
:100490000846006820F0030008600846006840F045
:1004A000020008601A4840681949486008464068D8
:1004B00048600846406840F48060486008464068EC
:1004C00020F47C1048600846406840F4E81048601A
:1004D0000846006840F08070086000BF0C48006863
:1004E00000F000700028F9D00948406820F00300AF
:1004F000074948600846406840F00200486000BF75
:100500000348406800F00C000828F9D10CBD000039
:1005100000100240002002407047000010B5134850
:10052000006840F001001149086008464068104921
:1005300008400E494860084600680E4908400B49CB
:1005400008600846006820F480200860084640687B
:1005500020F4FE0048604FF41F008860FFF767FF3B
:100560004FF000600449086010BD00000010024018
:100570000000FFF8FFFFF6FE08ED00E008480088E5
:1005800000F0010028B10748006880F0200005490C
:1005900008600348008820F0010001490880704786
:1005A000100400400C0C014000BFFEE7FFF7DAFE2C
:1005B000FFF75EFE0520FFF793FE41F61F4141F273
:1005C0008730FFF7A1FE00BFFEE70000DC05000852
:0C05D00000000020600600006C01000824
:0400000508000131BD
:00000001FF
